{
  "_format": "hh-sol-artifact-1",
  "contractName": "MultiTokenDistributorUpgradeableV2",
  "sourceName": "contracts/MultiTokenDistributorUpgradeableV2.sol",
  "abi": [
    {
      "inputs": [],
      "stateMutability": "nonpayable",
      "type": "constructor"
    },
    {
      "anonymous": false,
      "inputs": [
        {
          "indexed": true,
          "internalType": "uint256",
          "name": "index",
          "type": "uint256"
        },
        {
          "indexed": true,
          "internalType": "address",
          "name": "account",
          "type": "address"
        },
        {
          "indexed": false,
          "internalType": "address",
          "name": "token",
          "type": "address"
        },
        {
          "indexed": false,
          "internalType": "uint256",
          "name": "amount",
          "type": "uint256"
        }
      ],
      "name": "Claimed",
      "type": "event"
    },
    {
      "anonymous": false,
      "inputs": [
        {
          "indexed": true,
          "internalType": "address",
          "name": "account",
          "type": "address"
        },
        {
          "indexed": false,
          "internalType": "uint256",
          "name": "count",
          "type": "uint256"
        }
      ],
      "name": "ClaimedMany",
      "type": "event"
    },
    {
      "anonymous": false,
      "inputs": [
        {
          "indexed": false,
          "internalType": "uint8",
          "name": "version",
          "type": "uint8"
        }
      ],
      "name": "Initialized",
      "type": "event"
    },
    {
      "anonymous": false,
      "inputs": [
        {
          "indexed": false,
          "internalType": "bytes32",
          "name": "merkleRoot",
          "type": "bytes32"
        }
      ],
      "name": "MerkleRootUpdated",
      "type": "event"
    },
    {
      "anonymous": false,
      "inputs": [
        {
          "indexed": true,
          "internalType": "address",
          "name": "previousOwner",
          "type": "address"
        },
        {
          "indexed": true,
          "internalType": "address",
          "name": "newOwner",
          "type": "address"
        }
      ],
      "name": "OwnershipTransferred",
      "type": "event"
    },
    {
      "anonymous": false,
      "inputs": [
        {
          "indexed": false,
          "internalType": "address",
          "name": "account",
          "type": "address"
        }
      ],
      "name": "Paused",
      "type": "event"
    },
    {
      "anonymous": false,
      "inputs": [
        {
          "indexed": false,
          "internalType": "address",
          "name": "account",
          "type": "address"
        }
      ],
      "name": "Unpaused",
      "type": "event"
    },
    {
      "anonymous": false,
      "inputs": [
        {
          "indexed": true,
          "internalType": "address",
          "name": "owner",
          "type": "address"
        },
        {
          "indexed": false,
          "internalType": "uint256",
          "name": "ethAmount",
          "type": "uint256"
        },
        {
          "indexed": false,
          "internalType": "address[]",
          "name": "tokens",
          "type": "address[]"
        }
      ],
      "name": "WithdrawAll",
      "type": "event"
    },
    {
      "stateMutability": "payable",
      "type": "fallback"
    },
    {
      "inputs": [
        {
          "internalType": "uint256[]",
          "name": "indices",
          "type": "uint256[]"
        },
        {
          "internalType": "address",
          "name": "account",
          "type": "address"
        },
        {
          "internalType": "address[]",
          "name": "tokens",
          "type": "address[]"
        },
        {
          "internalType": "uint256[]",
          "name": "amounts",
          "type": "uint256[]"
        },
        {
          "internalType": "bytes32[][]",
          "name": "proofs",
          "type": "bytes32[][]"
        }
      ],
      "name": "claimMany",
      "outputs": [],
      "stateMutability": "nonpayable",
      "type": "function"
    },
    {
      "inputs": [
        {
          "internalType": "bytes32",
          "name": "_merkleRoot",
          "type": "bytes32"
        }
      ],
      "name": "initialize",
      "outputs": [],
      "stateMutability": "nonpayable",
      "type": "function"
    },
    {
      "inputs": [
        {
          "internalType": "uint256",
          "name": "index",
          "type": "uint256"
        }
      ],
      "name": "isClaimed",
      "outputs": [
        {
          "internalType": "bool",
          "name": "",
          "type": "bool"
        }
      ],
      "stateMutability": "view",
      "type": "function"
    },
    {
      "inputs": [],
      "name": "merkleRoot",
      "outputs": [
        {
          "internalType": "bytes32",
          "name": "",
          "type": "bytes32"
        }
      ],
      "stateMutability": "view",
      "type": "function"
    },
    {
      "inputs": [],
      "name": "owner",
      "outputs": [
        {
          "internalType": "address",
          "name": "",
          "type": "address"
        }
      ],
      "stateMutability": "view",
      "type": "function"
    },
    {
      "inputs": [],
      "name": "pause",
      "outputs": [],
      "stateMutability": "nonpayable",
      "type": "function"
    },
    {
      "inputs": [],
      "name": "paused",
      "outputs": [
        {
          "internalType": "bool",
          "name": "",
          "type": "bool"
        }
      ],
      "stateMutability": "view",
      "type": "function"
    },
    {
      "inputs": [],
      "name": "renounceOwnership",
      "outputs": [],
      "stateMutability": "nonpayable",
      "type": "function"
    },
    {
      "inputs": [
        {
          "internalType": "bytes32",
          "name": "_merkleRoot",
          "type": "bytes32"
        }
      ],
      "name": "setMerkleRoot",
      "outputs": [],
      "stateMutability": "nonpayable",
      "type": "function"
    },
    {
      "inputs": [
        {
          "internalType": "address",
          "name": "newOwner",
          "type": "address"
        }
      ],
      "name": "transferOwnership",
      "outputs": [],
      "stateMutability": "nonpayable",
      "type": "function"
    },
    {
      "inputs": [],
      "name": "unpause",
      "outputs": [],
      "stateMutability": "nonpayable",
      "type": "function"
    },
    {
      "inputs": [
        {
          "internalType": "address[]",
          "name": "tokens",
          "type": "address[]"
        }
      ],
      "name": "withdrawAll",
      "outputs": [],
      "stateMutability": "nonpayable",
      "type": "function"
    },
    {
      "stateMutability": "payable",
      "type": "receive"
    }
  ],
  "bytecode": "0x608060405234801561001057600080fd5b5061001f61002460201b60201c565b6101be565b600060019054906101000a900460ff1615610074576040517f08c379a000000000000000000000000000000000000000000000000000000000815260040161006b90610167565b60405180910390fd5b60ff801660008054906101000a900460ff1660ff16146100e25760ff6000806101000a81548160ff021916908360ff1602179055507f7f26b83ff96e1f2b6a682f133852f6798a09c465da95921460cefb384740249860ff6040516100d991906101a3565b60405180910390a15b565b600082825260208201905092915050565b7f496e697469616c697a61626c653a20636f6e747261637420697320696e69746960008201527f616c697a696e6700000000000000000000000000000000000000000000000000602082015250565b60006101516027836100e4565b915061015c826100f5565b604082019050919050565b6000602082019050818103600083015261018081610144565b9050919050565b600060ff82169050919050565b61019d81610187565b82525050565b60006020820190506101b86000830184610194565b92915050565b6123f9806101cd6000396000f3fe6080604052600436106100ab5760003560e01c80638456cb59116100645780638456cb59146101845780638da5cb5b1461019b5780639498bd71146101c65780639e34070f146101ef578063eac7998d1461022c578063f2fde38b14610255576100ac565b80632eb4a7ab146100ae5780633f4ba83a146100d95780635c975abb146100f05780636568a2791461011b578063715018a6146101445780637cb647591461015b576100ac565b5b005b3480156100ba57600080fd5b506100c361027e565b6040516100d09190611476565b60405180910390f35b3480156100e557600080fd5b506100ee610284565b005b3480156100fc57600080fd5b50610105610296565b60405161011291906114ac565b60405180910390f35b34801561012757600080fd5b50610142600480360381019061013d9190611536565b6102ad565b005b34801561015057600080fd5b50610159610484565b005b34801561016757600080fd5b50610182600480360381019061017d91906115af565b610498565b005b34801561019057600080fd5b506101996104e1565b005b3480156101a757600080fd5b506101b06104f3565b6040516101bd919061161d565b60405180910390f35b3480156101d257600080fd5b506101ed60048036038101906101e891906115af565b61051d565b005b3480156101fb57600080fd5b506102166004803603810190610211919061166e565b610673565b60405161022391906114ac565b60405180910390f35b34801561023857600080fd5b50610253600480360381019061024e9190611773565b6106b2565b005b34801561026157600080fd5b5061027c6004803603810190610277919061186f565b610830565b005b60c95481565b61028c6108b3565b610294610931565b565b6000606560009054906101000a900460ff16905090565b6102b56108b3565b6102bd610994565b6000479050600081111561031a576102d36104f3565b73ffffffffffffffffffffffffffffffffffffffff166108fc829081150290604051600060405180830381858888f19350505050158015610318573d6000803e3d6000fd5b505b60005b8383905081101561041d57600084848381811061033d5761033c61189c565b5b9050602002016020810190610352919061186f565b905060008173ffffffffffffffffffffffffffffffffffffffff166370a08231306040518263ffffffff1660e01b815260040161038f919061161d565b602060405180830381865afa1580156103ac573d6000803e3d6000fd5b505050506040513d601f19601f820116820180604052508101906103d091906118e0565b9050600081111561040e5761040d6103e66104f3565b828473ffffffffffffffffffffffffffffffffffffffff166109e39092919063ffffffff16565b5b5050808060010191505061031d565b506104266104f3565b73ffffffffffffffffffffffffffffffffffffffff167f89d2e953c7d554e771c6212de56affc185e7f164c40a09e6e8db81320596f15982858560405161046f939291906119df565b60405180910390a250610480610a69565b5050565b61048c6108b3565b6104966000610a73565b565b6104a06108b3565b8060c9819055507f90004c04698bc3322499a575ed3752dd4abf33e0a7294c06a787a0fe01bea941816040516104d69190611476565b60405180910390a150565b6104e96108b3565b6104f1610b39565b565b6000603360009054906101000a900473ffffffffffffffffffffffffffffffffffffffff16905090565b60008060019054906101000a900460ff1615905080801561054e5750600160008054906101000a900460ff1660ff16105b8061057b575061055d30610b9c565b15801561057a5750600160008054906101000a900460ff1660ff16145b5b6105ba576040517f08c379a00000000000000000000000000000000000000000000000000000000081526004016105b190611a94565b60405180910390fd5b60016000806101000a81548160ff021916908360ff16021790555080156105f7576001600060016101000a81548160ff0219169083151502179055505b6105ff610bbf565b610607610c18565b61060f610c71565b8160c981905550801561066f5760008060016101000a81548160ff0219169083151502179055507f7f26b83ff96e1f2b6a682f133852f6798a09c465da95921460cefb384740249860016040516106669190611b06565b60405180910390a15b5050565b600080600883901c9050600060ff84169050600060ca60008481526020019081526020016000205490506000826001901b821614159350505050919050565b6106ba610cca565b6106c2610994565b600089899050905086869050811480156106de57508484905081145b80156106ec57508282905081145b61072b576040517f08c379a000000000000000000000000000000000000000000000000000000000815260040161072290611b6d565b60405180910390fd5b60005b818110156107cd576107c08b8b8381811061074c5761074b61189c565b5b905060200201358a8a8a858181106107675761076661189c565b5b905060200201602081019061077c919061186f565b89898681811061078f5761078e61189c565b5b905060200201358888878181106107a9576107a861189c565b5b90506020028101906107bb9190611b9c565b610d14565b808060010191505061072e565b508773ffffffffffffffffffffffffffffffffffffffff167f0f8757f02ec8cb092f7990ea3c385f0058169642eb5a84318cd0af1cd607900e826040516108149190611bff565b60405180910390a250610825610a69565b505050505050505050565b6108386108b3565b600073ffffffffffffffffffffffffffffffffffffffff168173ffffffffffffffffffffffffffffffffffffffff16036108a7576040517f08c379a000000000000000000000000000000000000000000000000000000000815260040161089e90611c8c565b60405180910390fd5b6108b081610a73565b50565b6108bb610f90565b73ffffffffffffffffffffffffffffffffffffffff166108d96104f3565b73ffffffffffffffffffffffffffffffffffffffff161461092f576040517f08c379a000000000000000000000000000000000000000000000000000000000815260040161092690611cf8565b60405180910390fd5b565b610939610f98565b6000606560006101000a81548160ff0219169083151502179055507f5db9ee0a495bf2e6ff9c91a7834c1ba4fdd244a5e8aa4e537bd38aeae4b073aa61097d610f90565b60405161098a919061161d565b60405180910390a1565b6002609754036109d9576040517f08c379a00000000000000000000000000000000000000000000000000000000081526004016109d090611d64565b60405180910390fd5b6002609781905550565b610a648363a9059cbb60e01b8484604051602401610a02929190611d84565b604051602081830303815290604052907bffffffffffffffffffffffffffffffffffffffffffffffffffffffff19166020820180517bffffffffffffffffffffffffffffffffffffffffffffffffffffffff8381831617835250505050610fe1565b505050565b6001609781905550565b6000603360009054906101000a900473ffffffffffffffffffffffffffffffffffffffff16905081603360006101000a81548173ffffffffffffffffffffffffffffffffffffffff021916908373ffffffffffffffffffffffffffffffffffffffff1602179055508173ffffffffffffffffffffffffffffffffffffffff168173ffffffffffffffffffffffffffffffffffffffff167f8be0079c531659141344cd1fd0a4f28419497f9722a3daafe3b4186f6b6457e060405160405180910390a35050565b610b41610cca565b6001606560006101000a81548160ff0219169083151502179055507f62e78cea01bee320cd4e420270b5ea74000d11b0c9f74754ebdbfc544b05a258610b85610f90565b604051610b92919061161d565b60405180910390a1565b6000808273ffffffffffffffffffffffffffffffffffffffff163b119050919050565b600060019054906101000a900460ff16610c0e576040517f08c379a0000000000000000000000000000000000000000000000000000000008152600401610c0590611e1f565b60405180910390fd5b610c166110a9565b565b600060019054906101000a900460ff16610c67576040517f08c379a0000000000000000000000000000000000000000000000000000000008152600401610c5e90611e1f565b60405180910390fd5b610c6f61110a565b565b600060019054906101000a900460ff16610cc0576040517f08c379a0000000000000000000000000000000000000000000000000000000008152600401610cb790611e1f565b60405180910390fd5b610cc8611176565b565b610cd2610296565b15610d12576040517f08c379a0000000000000000000000000000000000000000000000000000000008152600401610d0990611e8b565b60405180910390fd5b565b610d1d86610673565b15610d5d576040517f08c379a0000000000000000000000000000000000000000000000000000000008152600401610d5490611ef7565b60405180910390fd5b600086868686604051602001610d769493929190611f17565b604051602081830303815290604052805190602001209050610ddc838380806020026020016040519081016040528093929190818152602001838360200280828437600081840152601f19601f8201169050808301925050505050505060c954836111cf565b610e1b576040517f08c379a0000000000000000000000000000000000000000000000000000000008152600401610e1290611fa8565b60405180910390fd5b610e24876111e6565b600073ffffffffffffffffffffffffffffffffffffffff168573ffffffffffffffffffffffffffffffffffffffff1603610f0a5760008673ffffffffffffffffffffffffffffffffffffffff1685604051610e7e90611ff9565b60006040518083038185875af1925050503d8060008114610ebb576040519150601f19603f3d011682016040523d82523d6000602084013e610ec0565b606091505b5050905080610f04576040517f08c379a0000000000000000000000000000000000000000000000000000000008152600401610efb9061205a565b60405180910390fd5b50610f36565b610f3586858773ffffffffffffffffffffffffffffffffffffffff166109e39092919063ffffffff16565b5b8573ffffffffffffffffffffffffffffffffffffffff16877fce3bcb6e219596cf26007ffdfaae8953bc3f76e3f36c0a79b23e28020da3222e8787604051610f7f929190611d84565b60405180910390a350505050505050565b600033905090565b610fa0610296565b610fdf576040517f08c379a0000000000000000000000000000000000000000000000000000000008152600401610fd6906120c6565b60405180910390fd5b565b6000611043826040518060400160405280602081526020017f5361666545524332303a206c6f772d6c6576656c2063616c6c206661696c65648152508573ffffffffffffffffffffffffffffffffffffffff166112219092919063ffffffff16565b90506000815114806110655750808060200190518101906110649190612112565b5b6110a4576040517f08c379a000000000000000000000000000000000000000000000000000000000815260040161109b906121b1565b60405180910390fd5b505050565b600060019054906101000a900460ff166110f8576040517f08c379a00000000000000000000000000000000000000000000000000000000081526004016110ef90611e1f565b60405180910390fd5b611108611103610f90565b610a73565b565b600060019054906101000a900460ff16611159576040517f08c379a000000000000000000000000000000000000000000000000000000000815260040161115090611e1f565b60405180910390fd5b6000606560006101000a81548160ff021916908315150217905550565b600060019054906101000a900460ff166111c5576040517f08c379a00000000000000000000000000000000000000000000000000000000081526004016111bc90611e1f565b60405180910390fd5b6001609781905550565b6000826111dc8584611239565b1490509392505050565b6000600882901c9050600060ff83169050806001901b60ca600084815260200190815260200160002060008282541792505081905550505050565b60606112308484600085611289565b90509392505050565b60008082905060005b845181101561127e5761126f828683815181106112625761126161189c565b5b6020026020010151611356565b91508080600101915050611242565b508091505092915050565b6060824710156112ce576040517f08c379a00000000000000000000000000000000000000000000000000000000081526004016112c590612243565b60405180910390fd5b6000808673ffffffffffffffffffffffffffffffffffffffff1685876040516112f791906122c9565b60006040518083038185875af1925050503d8060008114611334576040519150601f19603f3d011682016040523d82523d6000602084013e611339565b606091505b509150915061134a87838387611381565b92505050949350505050565b600081831061136e5761136982846113f6565b611379565b61137883836113f6565b5b905092915050565b606083156113e35760008351036113db5761139b85610b9c565b6113da576040517f08c379a00000000000000000000000000000000000000000000000000000000081526004016113d19061232c565b60405180910390fd5b5b8290506113ee565b6113ed838361140d565b5b949350505050565b600082600052816020526040600020905092915050565b6000825111156114205781518083602001fd5b806040517f08c379a000000000000000000000000000000000000000000000000000000000815260040161145491906123a1565b60405180910390fd5b6000819050919050565b6114708161145d565b82525050565b600060208201905061148b6000830184611467565b92915050565b60008115159050919050565b6114a681611491565b82525050565b60006020820190506114c1600083018461149d565b92915050565b600080fd5b600080fd5b600080fd5b600080fd5b600080fd5b60008083601f8401126114f6576114f56114d1565b5b8235905067ffffffffffffffff811115611513576115126114d6565b5b60208301915083602082028301111561152f5761152e6114db565b5b9250929050565b6000806020838503121561154d5761154c6114c7565b5b600083013567ffffffffffffffff81111561156b5761156a6114cc565b5b611577858286016114e0565b92509250509250929050565b61158c8161145d565b811461159757600080fd5b50565b6000813590506115a981611583565b92915050565b6000602082840312156115c5576115c46114c7565b5b60006115d38482850161159a565b91505092915050565b600073ffffffffffffffffffffffffffffffffffffffff82169050919050565b6000611607826115dc565b9050919050565b611617816115fc565b82525050565b6000602082019050611632600083018461160e565b92915050565b6000819050919050565b61164b81611638565b811461165657600080fd5b50565b60008135905061166881611642565b92915050565b600060208284031215611684576116836114c7565b5b600061169284828501611659565b91505092915050565b60008083601f8401126116b1576116b06114d1565b5b8235905067ffffffffffffffff8111156116ce576116cd6114d6565b5b6020830191508360208202830111156116ea576116e96114db565b5b9250929050565b6116fa816115fc565b811461170557600080fd5b50565b600081359050611717816116f1565b92915050565b60008083601f840112611733576117326114d1565b5b8235905067ffffffffffffffff8111156117505761174f6114d6565b5b60208301915083602082028301111561176c5761176b6114db565b5b9250929050565b600080600080600080600080600060a08a8c031215611795576117946114c7565b5b60008a013567ffffffffffffffff8111156117b3576117b26114cc565b5b6117bf8c828d0161169b565b995099505060206117d28c828d01611708565b97505060408a013567ffffffffffffffff8111156117f3576117f26114cc565b5b6117ff8c828d016114e0565b965096505060608a013567ffffffffffffffff811115611822576118216114cc565b5b61182e8c828d0161169b565b945094505060808a013567ffffffffffffffff811115611851576118506114cc565b5b61185d8c828d0161171d565b92509250509295985092959850929598565b600060208284031215611885576118846114c7565b5b600061189384828501611708565b91505092915050565b7f4e487b7100000000000000000000000000000000000000000000000000000000600052603260045260246000fd5b6000815190506118da81611642565b92915050565b6000602082840312156118f6576118f56114c7565b5b6000611904848285016118cb565b91505092915050565b61191681611638565b82525050565b600082825260208201905092915050565b6000819050919050565b611940816115fc565b82525050565b60006119528383611937565b60208301905092915050565b600061196d6020840184611708565b905092915050565b6000602082019050919050565b600061198e838561191c565b93506119998261192d565b8060005b858110156119d2576119af828461195e565b6119b98882611946565b97506119c483611975565b92505060018101905061199d565b5085925050509392505050565b60006040820190506119f4600083018661190d565b8181036020830152611a07818486611982565b9050949350505050565b600082825260208201905092915050565b7f496e697469616c697a61626c653a20636f6e747261637420697320616c72656160008201527f647920696e697469616c697a6564000000000000000000000000000000000000602082015250565b6000611a7e602e83611a11565b9150611a8982611a22565b604082019050919050565b60006020820190508181036000830152611aad81611a71565b9050919050565b6000819050919050565b600060ff82169050919050565b6000819050919050565b6000611af0611aeb611ae684611ab4565b611acb565b611abe565b9050919050565b611b0081611ad5565b82525050565b6000602082019050611b1b6000830184611af7565b92915050565b7f4c656e677468206d69736d617463680000000000000000000000000000000000600082015250565b6000611b57600f83611a11565b9150611b6282611b21565b602082019050919050565b60006020820190508181036000830152611b8681611b4a565b9050919050565b600080fd5b600080fd5b600080fd5b60008083356001602003843603038112611bb957611bb8611b8d565b5b80840192508235915067ffffffffffffffff821115611bdb57611bda611b92565b5b602083019250602082023603831315611bf757611bf6611b97565b5b509250929050565b6000602082019050611c14600083018461190d565b92915050565b7f4f776e61626c653a206e6577206f776e657220697320746865207a65726f206160008201527f6464726573730000000000000000000000000000000000000000000000000000602082015250565b6000611c76602683611a11565b9150611c8182611c1a565b604082019050919050565b60006020820190508181036000830152611ca581611c69565b9050919050565b7f4f776e61626c653a2063616c6c6572206973206e6f7420746865206f776e6572600082015250565b6000611ce2602083611a11565b9150611ced82611cac565b602082019050919050565b60006020820190508181036000830152611d1181611cd5565b9050919050565b7f5265656e7472616e637947756172643a207265656e7472616e742063616c6c00600082015250565b6000611d4e601f83611a11565b9150611d5982611d18565b602082019050919050565b60006020820190508181036000830152611d7d81611d41565b9050919050565b6000604082019050611d99600083018561160e565b611da6602083018461190d565b9392505050565b7f496e697469616c697a61626c653a20636f6e7472616374206973206e6f74206960008201527f6e697469616c697a696e67000000000000000000000000000000000000000000602082015250565b6000611e09602b83611a11565b9150611e1482611dad565b604082019050919050565b60006020820190508181036000830152611e3881611dfc565b9050919050565b7f5061757361626c653a2070617573656400000000000000000000000000000000600082015250565b6000611e75601083611a11565b9150611e8082611e3f565b602082019050919050565b60006020820190508181036000830152611ea481611e68565b9050919050565b7f416c726561647920636c61696d65640000000000000000000000000000000000600082015250565b6000611ee1600f83611a11565b9150611eec82611eab565b602082019050919050565b60006020820190508181036000830152611f1081611ed4565b9050919050565b6000608082019050611f2c600083018761190d565b611f39602083018661160e565b611f46604083018561160e565b611f53606083018461190d565b95945050505050565b7f496e76616c69642070726f6f6600000000000000000000000000000000000000600082015250565b6000611f92600d83611a11565b9150611f9d82611f5c565b602082019050919050565b60006020820190508181036000830152611fc181611f85565b9050919050565b600081905092915050565b50565b6000611fe3600083611fc8565b9150611fee82611fd3565b600082019050919050565b600061200482611fd6565b9150819050919050565b7f455448207472616e73666572206661696c656400000000000000000000000000600082015250565b6000612044601383611a11565b915061204f8261200e565b602082019050919050565b6000602082019050818103600083015261207381612037565b9050919050565b7f5061757361626c653a206e6f7420706175736564000000000000000000000000600082015250565b60006120b0601483611a11565b91506120bb8261207a565b602082019050919050565b600060208201905081810360008301526120df816120a3565b9050919050565b6120ef81611491565b81146120fa57600080fd5b50565b60008151905061210c816120e6565b92915050565b600060208284031215612128576121276114c7565b5b6000612136848285016120fd565b91505092915050565b7f5361666545524332303a204552433230206f7065726174696f6e20646964206e60008201527f6f74207375636365656400000000000000000000000000000000000000000000602082015250565b600061219b602a83611a11565b91506121a68261213f565b604082019050919050565b600060208201905081810360008301526121ca8161218e565b9050919050565b7f416464726573733a20696e73756666696369656e742062616c616e636520666f60008201527f722063616c6c0000000000000000000000000000000000000000000000000000602082015250565b600061222d602683611a11565b9150612238826121d1565b604082019050919050565b6000602082019050818103600083015261225c81612220565b9050919050565b600081519050919050565b60005b8381101561228c578082015181840152602081019050612271565b60008484015250505050565b60006122a382612263565b6122ad8185611fc8565b93506122bd81856020860161226e565b80840191505092915050565b60006122d58284612298565b915081905092915050565b7f416464726573733a2063616c6c20746f206e6f6e2d636f6e7472616374000000600082015250565b6000612316601d83611a11565b9150612321826122e0565b602082019050919050565b6000602082019050818103600083015261234581612309565b9050919050565b600081519050919050565b6000601f19601f8301169050919050565b60006123738261234c565b61237d8185611a11565b935061238d81856020860161226e565b61239681612357565b840191505092915050565b600060208201905081810360008301526123bb8184612368565b90509291505056fea2646970667358221220aa3c5d4908ff58d48da7a41250ec4b6aadef0d7f8f04323bda143c1000e0bc1c64736f6c634300081c0033",
  "linkReferences": {},
  "deployedLinkReferences": {}
}