{
  "_format": "hh-sol-artifact-1",
  "contractName": "MultiTokenDistributor",
  "sourceName": "contracts/MultiTokenDistributor.sol",
  "abi": [
    {
      "inputs": [
        {
          "internalType": "bytes32",
          "name": "_merkleRoot",
          "type": "bytes32"
        }
      ],
      "stateMutability": "nonpayable",
      "type": "constructor"
    },
    {
      "anonymous": false,
      "inputs": [
        {
          "indexed": true,
          "internalType": "uint256",
          "name": "index",
          "type": "uint256"
        },
        {
          "indexed": true,
          "internalType": "address",
          "name": "account",
          "type": "address"
        },
        {
          "indexed": false,
          "internalType": "address",
          "name": "token",
          "type": "address"
        },
        {
          "indexed": false,
          "internalType": "uint256",
          "name": "amount",
          "type": "uint256"
        }
      ],
      "name": "Claimed",
      "type": "event"
    },
    {
      "anonymous": false,
      "inputs": [
        {
          "indexed": true,
          "internalType": "address",
          "name": "account",
          "type": "address"
        },
        {
          "indexed": false,
          "internalType": "uint256",
          "name": "count",
          "type": "uint256"
        }
      ],
      "name": "ClaimedMany",
      "type": "event"
    },
    {
      "anonymous": false,
      "inputs": [
        {
          "indexed": false,
          "internalType": "bytes32",
          "name": "merkleRoot",
          "type": "bytes32"
        }
      ],
      "name": "MerkleRootUpdated",
      "type": "event"
    },
    {
      "anonymous": false,
      "inputs": [
        {
          "indexed": true,
          "internalType": "address",
          "name": "previousOwner",
          "type": "address"
        },
        {
          "indexed": true,
          "internalType": "address",
          "name": "newOwner",
          "type": "address"
        }
      ],
      "name": "OwnershipTransferred",
      "type": "event"
    },
    {
      "anonymous": false,
      "inputs": [
        {
          "indexed": false,
          "internalType": "address",
          "name": "account",
          "type": "address"
        }
      ],
      "name": "Paused",
      "type": "event"
    },
    {
      "anonymous": false,
      "inputs": [
        {
          "indexed": false,
          "internalType": "address",
          "name": "account",
          "type": "address"
        }
      ],
      "name": "Unpaused",
      "type": "event"
    },
    {
      "anonymous": false,
      "inputs": [
        {
          "indexed": true,
          "internalType": "address",
          "name": "owner",
          "type": "address"
        },
        {
          "indexed": false,
          "internalType": "uint256",
          "name": "ethAmount",
          "type": "uint256"
        },
        {
          "indexed": false,
          "internalType": "address[]",
          "name": "tokens",
          "type": "address[]"
        }
      ],
      "name": "WithdrawAll",
      "type": "event"
    },
    {
      "stateMutability": "payable",
      "type": "fallback"
    },
    {
      "inputs": [
        {
          "internalType": "uint256",
          "name": "index",
          "type": "uint256"
        },
        {
          "internalType": "address",
          "name": "account",
          "type": "address"
        },
        {
          "internalType": "address",
          "name": "token",
          "type": "address"
        },
        {
          "internalType": "uint256",
          "name": "amount",
          "type": "uint256"
        },
        {
          "internalType": "bytes32[]",
          "name": "proof",
          "type": "bytes32[]"
        }
      ],
      "name": "claim",
      "outputs": [],
      "stateMutability": "nonpayable",
      "type": "function"
    },
    {
      "inputs": [
        {
          "internalType": "uint256[]",
          "name": "indices",
          "type": "uint256[]"
        },
        {
          "internalType": "address",
          "name": "account",
          "type": "address"
        },
        {
          "internalType": "address[]",
          "name": "tokens",
          "type": "address[]"
        },
        {
          "internalType": "uint256[]",
          "name": "amounts",
          "type": "uint256[]"
        },
        {
          "internalType": "bytes32[][]",
          "name": "proofs",
          "type": "bytes32[][]"
        }
      ],
      "name": "claimMany",
      "outputs": [],
      "stateMutability": "nonpayable",
      "type": "function"
    },
    {
      "inputs": [
        {
          "internalType": "uint256",
          "name": "index",
          "type": "uint256"
        }
      ],
      "name": "isClaimed",
      "outputs": [
        {
          "internalType": "bool",
          "name": "",
          "type": "bool"
        }
      ],
      "stateMutability": "view",
      "type": "function"
    },
    {
      "inputs": [],
      "name": "merkleRoot",
      "outputs": [
        {
          "internalType": "bytes32",
          "name": "",
          "type": "bytes32"
        }
      ],
      "stateMutability": "view",
      "type": "function"
    },
    {
      "inputs": [],
      "name": "owner",
      "outputs": [
        {
          "internalType": "address",
          "name": "",
          "type": "address"
        }
      ],
      "stateMutability": "view",
      "type": "function"
    },
    {
      "inputs": [],
      "name": "pause",
      "outputs": [],
      "stateMutability": "nonpayable",
      "type": "function"
    },
    {
      "inputs": [],
      "name": "paused",
      "outputs": [
        {
          "internalType": "bool",
          "name": "",
          "type": "bool"
        }
      ],
      "stateMutability": "view",
      "type": "function"
    },
    {
      "inputs": [],
      "name": "renounceOwnership",
      "outputs": [],
      "stateMutability": "nonpayable",
      "type": "function"
    },
    {
      "inputs": [
        {
          "internalType": "bytes32",
          "name": "_merkleRoot",
          "type": "bytes32"
        }
      ],
      "name": "setMerkleRoot",
      "outputs": [],
      "stateMutability": "nonpayable",
      "type": "function"
    },
    {
      "inputs": [
        {
          "internalType": "address",
          "name": "newOwner",
          "type": "address"
        }
      ],
      "name": "transferOwnership",
      "outputs": [],
      "stateMutability": "nonpayable",
      "type": "function"
    },
    {
      "inputs": [],
      "name": "unpause",
      "outputs": [],
      "stateMutability": "nonpayable",
      "type": "function"
    },
    {
      "inputs": [
        {
          "internalType": "address[]",
          "name": "tokens",
          "type": "address[]"
        }
      ],
      "name": "withdrawAll",
      "outputs": [],
      "stateMutability": "nonpayable",
      "type": "function"
    },
    {
      "stateMutability": "payable",
      "type": "receive"
    }
  ],
  "bytecode": "0x608060405234801561001057600080fd5b5060405161248138038061248183398181016040528101906100329190610184565b61004e61004361007d60201b60201c565b61008560201b60201c565b600180819055506000600260006101000a81548160ff02191690831515021790555080600381905550506101b1565b600033905090565b60008060009054906101000a900473ffffffffffffffffffffffffffffffffffffffff169050816000806101000a81548173ffffffffffffffffffffffffffffffffffffffff021916908373ffffffffffffffffffffffffffffffffffffffff1602179055508173ffffffffffffffffffffffffffffffffffffffff168173ffffffffffffffffffffffffffffffffffffffff167f8be0079c531659141344cd1fd0a4f28419497f9722a3daafe3b4186f6b6457e060405160405180910390a35050565b600080fd5b6000819050919050565b6101618161014e565b811461016c57600080fd5b50565b60008151905061017e81610158565b92915050565b60006020828403121561019a57610199610149565b5b60006101a88482850161016f565b91505092915050565b6122c1806101c06000396000f3fe6080604052600436106100ab5760003560e01c80638456cb59116100645780638456cb59146101845780638da5cb5b1461019b5780639e34070f146101c6578063eac7998d14610203578063f0f7df9c1461022c578063f2fde38b14610255576100ac565b80632eb4a7ab146100ae5780633f4ba83a146100d95780635c975abb146100f05780636568a2791461011b578063715018a6146101445780637cb647591461015b576100ac565b5b005b3480156100ba57600080fd5b506100c361027e565b6040516100d0919061134d565b60405180910390f35b3480156100e557600080fd5b506100ee610284565b005b3480156100fc57600080fd5b50610105610296565b6040516101129190611383565b60405180910390f35b34801561012757600080fd5b50610142600480360381019061013d919061140d565b6102ad565b005b34801561015057600080fd5b50610159610466565b005b34801561016757600080fd5b50610182600480360381019061017d9190611486565b61047a565b005b34801561019057600080fd5b506101996104c3565b005b3480156101a757600080fd5b506101b06104d5565b6040516101bd91906114f4565b60405180910390f35b3480156101d257600080fd5b506101ed60048036038101906101e89190611545565b6104fe565b6040516101fa9190611383565b60405180910390f35b34801561020f57600080fd5b5061022a6004803603810190610225919061164a565b61053d565b005b34801561023857600080fd5b50610253600480360381019061024e919061179c565b6106bb565b005b34801561026157600080fd5b5061027c60048036038101906102779190611836565b6108cb565b005b60035481565b61028c61094e565b6102946109cc565b565b6000600260009054906101000a900460ff16905090565b6102b561094e565b6102bd610a2f565b600047905060008111156102fc576102fb816102d76104d5565b73ffffffffffffffffffffffffffffffffffffffff16610a7e90919063ffffffff16565b5b60005b838390508110156103ff57600084848381811061031f5761031e611863565b5b90506020020160208101906103349190611836565b905060008173ffffffffffffffffffffffffffffffffffffffff166370a08231306040518263ffffffff1660e01b815260040161037191906114f4565b602060405180830381865afa15801561038e573d6000803e3d6000fd5b505050506040513d601f19601f820116820180604052508101906103b291906118a7565b905060008111156103f0576103ef6103c86104d5565b828473ffffffffffffffffffffffffffffffffffffffff16610b729092919063ffffffff16565b5b505080806001019150506102ff565b506104086104d5565b73ffffffffffffffffffffffffffffffffffffffff167f89d2e953c7d554e771c6212de56affc185e7f164c40a09e6e8db81320596f159828585604051610451939291906119a6565b60405180910390a250610462610bf8565b5050565b61046e61094e565b6104786000610c01565b565b61048261094e565b806003819055507f90004c04698bc3322499a575ed3752dd4abf33e0a7294c06a787a0fe01bea941816040516104b8919061134d565b60405180910390a150565b6104cb61094e565b6104d3610cc5565b565b60008060009054906101000a900473ffffffffffffffffffffffffffffffffffffffff16905090565b600080600883901c9050600060ff841690506000600460008481526020019081526020016000205490506000826001901b821614159350505050919050565b610545610d28565b61054d610a2f565b6000898990509050868690508114801561056957508484905081145b801561057757508282905081145b6105b6576040517f08c379a00000000000000000000000000000000000000000000000000000000081526004016105ad90611a35565b60405180910390fd5b60005b818110156106585761064b8b8b838181106105d7576105d6611863565b5b905060200201358a8a8a858181106105f2576105f1611863565b5b90506020020160208101906106079190611836565b89898681811061061a57610619611863565b5b9050602002013588888781811061063457610633611863565b5b90506020028101906106469190611a64565b610d72565b80806001019150506105b9565b508773ffffffffffffffffffffffffffffffffffffffff167f0f8757f02ec8cb092f7990ea3c385f0058169642eb5a84318cd0af1cd607900e8260405161069f9190611ac7565b60405180910390a2506106b0610bf8565b505050505050505050565b6106c3610d28565b6106cb610a2f565b6106d4866104fe565b15610714576040517f08c379a000000000000000000000000000000000000000000000000000000000815260040161070b90611b2e565b60405180910390fd5b60008686868660405160200161072d9493929190611b4e565b604051602081830303815290604052805190602001209050610793838380806020026020016040519081016040528093929190818152602001838360200280828437600081840152601f19601f8201169050808301925050505050505060035483610f6a565b6107d2576040517f08c379a00000000000000000000000000000000000000000000000000000000081526004016107c990611bdf565b60405180910390fd5b6107db87610f81565b600073ffffffffffffffffffffffffffffffffffffffff168573ffffffffffffffffffffffffffffffffffffffff160361083d57610838848773ffffffffffffffffffffffffffffffffffffffff16610a7e90919063ffffffff16565b610869565b61086886858773ffffffffffffffffffffffffffffffffffffffff16610b729092919063ffffffff16565b5b8573ffffffffffffffffffffffffffffffffffffffff16877fce3bcb6e219596cf26007ffdfaae8953bc3f76e3f36c0a79b23e28020da3222e87876040516108b2929190611bff565b60405180910390a3506108c3610bf8565b505050505050565b6108d361094e565b600073ffffffffffffffffffffffffffffffffffffffff168173ffffffffffffffffffffffffffffffffffffffff1603610942576040517f08c379a000000000000000000000000000000000000000000000000000000000815260040161093990611c9a565b60405180910390fd5b61094b81610c01565b50565b610956610fbc565b73ffffffffffffffffffffffffffffffffffffffff166109746104d5565b73ffffffffffffffffffffffffffffffffffffffff16146109ca576040517f08c379a00000000000000000000000000000000000000000000000000000000081526004016109c190611d06565b60405180910390fd5b565b6109d4610fc4565b6000600260006101000a81548160ff0219169083151502179055507f5db9ee0a495bf2e6ff9c91a7834c1ba4fdd244a5e8aa4e537bd38aeae4b073aa610a18610fbc565b604051610a2591906114f4565b60405180910390a1565b600260015403610a74576040517f08c379a0000000000000000000000000000000000000000000000000000000008152600401610a6b90611d72565b60405180910390fd5b6002600181905550565b80471015610ac1576040517f08c379a0000000000000000000000000000000000000000000000000000000008152600401610ab890611dde565b60405180910390fd5b60008273ffffffffffffffffffffffffffffffffffffffff1682604051610ae790611e2f565b60006040518083038185875af1925050503d8060008114610b24576040519150601f19603f3d011682016040523d82523d6000602084013e610b29565b606091505b5050905080610b6d576040517f08c379a0000000000000000000000000000000000000000000000000000000008152600401610b6490611eb6565b60405180910390fd5b505050565b610bf38363a9059cbb60e01b8484604051602401610b91929190611bff565b604051602081830303815290604052907bffffffffffffffffffffffffffffffffffffffffffffffffffffffff19166020820180517bffffffffffffffffffffffffffffffffffffffffffffffffffffffff838183161783525050505061100d565b505050565b60018081905550565b60008060009054906101000a900473ffffffffffffffffffffffffffffffffffffffff169050816000806101000a81548173ffffffffffffffffffffffffffffffffffffffff021916908373ffffffffffffffffffffffffffffffffffffffff1602179055508173ffffffffffffffffffffffffffffffffffffffff168173ffffffffffffffffffffffffffffffffffffffff167f8be0079c531659141344cd1fd0a4f28419497f9722a3daafe3b4186f6b6457e060405160405180910390a35050565b610ccd610d28565b6001600260006101000a81548160ff0219169083151502179055507f62e78cea01bee320cd4e420270b5ea74000d11b0c9f74754ebdbfc544b05a258610d11610fbc565b604051610d1e91906114f4565b60405180910390a1565b610d30610296565b15610d70576040517f08c379a0000000000000000000000000000000000000000000000000000000008152600401610d6790611f22565b60405180910390fd5b565b610d7b866104fe565b15610dbb576040517f08c379a0000000000000000000000000000000000000000000000000000000008152600401610db290611b2e565b60405180910390fd5b600086868686604051602001610dd49493929190611b4e565b604051602081830303815290604052805190602001209050610e3a838380806020026020016040519081016040528093929190818152602001838360200280828437600081840152601f19601f8201169050808301925050505050505060035483610f6a565b610e79576040517f08c379a0000000000000000000000000000000000000000000000000000000008152600401610e7090611bdf565b60405180910390fd5b610e8287610f81565b600073ffffffffffffffffffffffffffffffffffffffff168573ffffffffffffffffffffffffffffffffffffffff1603610ee457610edf848773ffffffffffffffffffffffffffffffffffffffff16610a7e90919063ffffffff16565b610f10565b610f0f86858773ffffffffffffffffffffffffffffffffffffffff16610b729092919063ffffffff16565b5b8573ffffffffffffffffffffffffffffffffffffffff16877fce3bcb6e219596cf26007ffdfaae8953bc3f76e3f36c0a79b23e28020da3222e8787604051610f59929190611bff565b60405180910390a350505050505050565b600082610f7785846110d5565b1490509392505050565b6000600882901c9050600060ff83169050806001901b6004600084815260200190815260200160002060008282541792505081905550505050565b600033905090565b610fcc610296565b61100b576040517f08c379a000000000000000000000000000000000000000000000000000000000815260040161100290611f8e565b60405180910390fd5b565b600061106f826040518060400160405280602081526020017f5361666545524332303a206c6f772d6c6576656c2063616c6c206661696c65648152508573ffffffffffffffffffffffffffffffffffffffff166111259092919063ffffffff16565b90506000815114806110915750808060200190518101906110909190611fda565b5b6110d0576040517f08c379a00000000000000000000000000000000000000000000000000000000081526004016110c790612079565b60405180910390fd5b505050565b60008082905060005b845181101561111a5761110b828683815181106110fe576110fd611863565b5b602002602001015161113d565b915080806001019150506110de565b508091505092915050565b60606111348484600085611168565b90509392505050565b6000818310611155576111508284611235565b611160565b61115f8383611235565b5b905092915050565b6060824710156111ad576040517f08c379a00000000000000000000000000000000000000000000000000000000081526004016111a49061210b565b60405180910390fd5b6000808673ffffffffffffffffffffffffffffffffffffffff1685876040516111d69190612191565b60006040518083038185875af1925050503d8060008114611213576040519150601f19603f3d011682016040523d82523d6000602084013e611218565b606091505b50915091506112298783838761124c565b92505050949350505050565b600082600052816020526040600020905092915050565b606083156112ae5760008351036112a657611266856112c1565b6112a5576040517f08c379a000000000000000000000000000000000000000000000000000000000815260040161129c906121f4565b60405180910390fd5b5b8290506112b9565b6112b883836112e4565b5b949350505050565b6000808273ffffffffffffffffffffffffffffffffffffffff163b119050919050565b6000825111156112f75781518083602001fd5b806040517f08c379a000000000000000000000000000000000000000000000000000000000815260040161132b9190612269565b60405180910390fd5b6000819050919050565b61134781611334565b82525050565b6000602082019050611362600083018461133e565b92915050565b60008115159050919050565b61137d81611368565b82525050565b60006020820190506113986000830184611374565b92915050565b600080fd5b600080fd5b600080fd5b600080fd5b600080fd5b60008083601f8401126113cd576113cc6113a8565b5b8235905067ffffffffffffffff8111156113ea576113e96113ad565b5b602083019150836020820283011115611406576114056113b2565b5b9250929050565b600080602083850312156114245761142361139e565b5b600083013567ffffffffffffffff811115611442576114416113a3565b5b61144e858286016113b7565b92509250509250929050565b61146381611334565b811461146e57600080fd5b50565b6000813590506114808161145a565b92915050565b60006020828403121561149c5761149b61139e565b5b60006114aa84828501611471565b91505092915050565b600073ffffffffffffffffffffffffffffffffffffffff82169050919050565b60006114de826114b3565b9050919050565b6114ee816114d3565b82525050565b600060208201905061150960008301846114e5565b92915050565b6000819050919050565b6115228161150f565b811461152d57600080fd5b50565b60008135905061153f81611519565b92915050565b60006020828403121561155b5761155a61139e565b5b600061156984828501611530565b91505092915050565b60008083601f840112611588576115876113a8565b5b8235905067ffffffffffffffff8111156115a5576115a46113ad565b5b6020830191508360208202830111156115c1576115c06113b2565b5b9250929050565b6115d1816114d3565b81146115dc57600080fd5b50565b6000813590506115ee816115c8565b92915050565b60008083601f84011261160a576116096113a8565b5b8235905067ffffffffffffffff811115611627576116266113ad565b5b602083019150836020820283011115611643576116426113b2565b5b9250929050565b600080600080600080600080600060a08a8c03121561166c5761166b61139e565b5b60008a013567ffffffffffffffff81111561168a576116896113a3565b5b6116968c828d01611572565b995099505060206116a98c828d016115df565b97505060408a013567ffffffffffffffff8111156116ca576116c96113a3565b5b6116d68c828d016113b7565b965096505060608a013567ffffffffffffffff8111156116f9576116f86113a3565b5b6117058c828d01611572565b945094505060808a013567ffffffffffffffff811115611728576117276113a3565b5b6117348c828d016115f4565b92509250509295985092959850929598565b60008083601f84011261175c5761175b6113a8565b5b8235905067ffffffffffffffff811115611779576117786113ad565b5b602083019150836020820283011115611795576117946113b2565b5b9250929050565b60008060008060008060a087890312156117b9576117b861139e565b5b60006117c789828a01611530565b96505060206117d889828a016115df565b95505060406117e989828a016115df565b94505060606117fa89828a01611530565b935050608087013567ffffffffffffffff81111561181b5761181a6113a3565b5b61182789828a01611746565b92509250509295509295509295565b60006020828403121561184c5761184b61139e565b5b600061185a848285016115df565b91505092915050565b7f4e487b7100000000000000000000000000000000000000000000000000000000600052603260045260246000fd5b6000815190506118a181611519565b92915050565b6000602082840312156118bd576118bc61139e565b5b60006118cb84828501611892565b91505092915050565b6118dd8161150f565b82525050565b600082825260208201905092915050565b6000819050919050565b611907816114d3565b82525050565b600061191983836118fe565b60208301905092915050565b600061193460208401846115df565b905092915050565b6000602082019050919050565b600061195583856118e3565b9350611960826118f4565b8060005b85811015611999576119768284611925565b611980888261190d565b975061198b8361193c565b925050600181019050611964565b5085925050509392505050565b60006040820190506119bb60008301866118d4565b81810360208301526119ce818486611949565b9050949350505050565b600082825260208201905092915050565b7f4c656e677468206d69736d617463680000000000000000000000000000000000600082015250565b6000611a1f600f836119d8565b9150611a2a826119e9565b602082019050919050565b60006020820190508181036000830152611a4e81611a12565b9050919050565b600080fd5b600080fd5b600080fd5b60008083356001602003843603038112611a8157611a80611a55565b5b80840192508235915067ffffffffffffffff821115611aa357611aa2611a5a565b5b602083019250602082023603831315611abf57611abe611a5f565b5b509250929050565b6000602082019050611adc60008301846118d4565b92915050565b7f416c726561647920636c61696d65640000000000000000000000000000000000600082015250565b6000611b18600f836119d8565b9150611b2382611ae2565b602082019050919050565b60006020820190508181036000830152611b4781611b0b565b9050919050565b6000608082019050611b6360008301876118d4565b611b7060208301866114e5565b611b7d60408301856114e5565b611b8a60608301846118d4565b95945050505050565b7f496e76616c69642070726f6f6600000000000000000000000000000000000000600082015250565b6000611bc9600d836119d8565b9150611bd482611b93565b602082019050919050565b60006020820190508181036000830152611bf881611bbc565b9050919050565b6000604082019050611c1460008301856114e5565b611c2160208301846118d4565b9392505050565b7f4f776e61626c653a206e6577206f776e657220697320746865207a65726f206160008201527f6464726573730000000000000000000000000000000000000000000000000000602082015250565b6000611c846026836119d8565b9150611c8f82611c28565b604082019050919050565b60006020820190508181036000830152611cb381611c77565b9050919050565b7f4f776e61626c653a2063616c6c6572206973206e6f7420746865206f776e6572600082015250565b6000611cf06020836119d8565b9150611cfb82611cba565b602082019050919050565b60006020820190508181036000830152611d1f81611ce3565b9050919050565b7f5265656e7472616e637947756172643a207265656e7472616e742063616c6c00600082015250565b6000611d5c601f836119d8565b9150611d6782611d26565b602082019050919050565b60006020820190508181036000830152611d8b81611d4f565b9050919050565b7f416464726573733a20696e73756666696369656e742062616c616e6365000000600082015250565b6000611dc8601d836119d8565b9150611dd382611d92565b602082019050919050565b60006020820190508181036000830152611df781611dbb565b9050919050565b600081905092915050565b50565b6000611e19600083611dfe565b9150611e2482611e09565b600082019050919050565b6000611e3a82611e0c565b9150819050919050565b7f416464726573733a20756e61626c6520746f2073656e642076616c75652c207260008201527f6563697069656e74206d61792068617665207265766572746564000000000000602082015250565b6000611ea0603a836119d8565b9150611eab82611e44565b604082019050919050565b60006020820190508181036000830152611ecf81611e93565b9050919050565b7f5061757361626c653a2070617573656400000000000000000000000000000000600082015250565b6000611f0c6010836119d8565b9150611f1782611ed6565b602082019050919050565b60006020820190508181036000830152611f3b81611eff565b9050919050565b7f5061757361626c653a206e6f7420706175736564000000000000000000000000600082015250565b6000611f786014836119d8565b9150611f8382611f42565b602082019050919050565b60006020820190508181036000830152611fa781611f6b565b9050919050565b611fb781611368565b8114611fc257600080fd5b50565b600081519050611fd481611fae565b92915050565b600060208284031215611ff057611fef61139e565b5b6000611ffe84828501611fc5565b91505092915050565b7f5361666545524332303a204552433230206f7065726174696f6e20646964206e60008201527f6f74207375636365656400000000000000000000000000000000000000000000602082015250565b6000612063602a836119d8565b915061206e82612007565b604082019050919050565b6000602082019050818103600083015261209281612056565b9050919050565b7f416464726573733a20696e73756666696369656e742062616c616e636520666f60008201527f722063616c6c0000000000000000000000000000000000000000000000000000602082015250565b60006120f56026836119d8565b915061210082612099565b604082019050919050565b60006020820190508181036000830152612124816120e8565b9050919050565b600081519050919050565b60005b83811015612154578082015181840152602081019050612139565b60008484015250505050565b600061216b8261212b565b6121758185611dfe565b9350612185818560208601612136565b80840191505092915050565b600061219d8284612160565b915081905092915050565b7f416464726573733a2063616c6c20746f206e6f6e2d636f6e7472616374000000600082015250565b60006121de601d836119d8565b91506121e9826121a8565b602082019050919050565b6000602082019050818103600083015261220d816121d1565b9050919050565b600081519050919050565b6000601f19601f8301169050919050565b600061223b82612214565b61224581856119d8565b9350612255818560208601612136565b61225e8161221f565b840191505092915050565b600060208201905081810360008301526122838184612230565b90509291505056fea264697066735822122037eac76c2780a312a30e924b0ec452f67db9dd02720e55735de0a75e595ef05464736f6c634300081c0033",
  "linkReferences": {},
  "deployedLinkReferences": {}
}